:020000040000FA
:100000000C944D030C9475030C9475030C947503B8
:100010000C9475030C9475030C9475030C94750380
:100020000C9475030C9475030C9475030C94750370
:100030000C9475030C9475030C9475030C94750360
:100040000C949A110C9475030C9475030C9475031D
:100050000C9475030C9475030C9475030C94750340
:100060000C94E4110C947503EF00EB0114FE00EF07
:1000700000EB01148401408501FF8601FF8701FF29
:1000800088010A8901218A01008B01808C01018D80
:1000900001018E01FF8F01FFB60200003601483AD0
:1000A0000105900408080808BD0106BC0100FF0313
:1000B000600104C30113C40113C90122BE0111E18F
:1000C00002100EDF03210C02F00645090808262A5B
:1000D000F10643707236376FF20645090808262A82
:1000E000F30643707236376FED021B0BAE0177CD0E
:1000F0000163E80134620C180D71ED7070180F7116
:10010000EF7070630C181171F17070181371F37047
:100110007064072829F101F10007660A3C00CD67E9
:10012000454510000000670A003C00000001541023
:100130003298740710858000004E0098023E073503
:10014000002100118029800000000000003E5B4F6C
:100150005B3E3E6B4F6B3E1C3E7C3E1C183C7E3C27
:10016000181C577D571C1C5E7F5E1C00183C180035
:10017000FFE7C3E7FF0018241800FFE7DBE7FF30C5
:10018000483A060E2629792926407F050507407F33
:1001900005253F5A3CE73C5A7F3E1C1C08081C1CA6
:1001A0003E7F14227F22145F5F005F5F06097F019C
:1001B0007F006689956A606060606094A2FFA29487
:1001C00008047E040810207E201008082A1C080855
:1001D0001C2A08081E101010100C1E0C1E0C3038A3
:1001E0003E3830060E3E0E06000000000000005FA4
:1001F00000000007000700147F147F14242A7F2AC0
:100200001223130864623649562050000807030081
:10021000001C2241000041221C002A1C7F1C2A08CD
:10022000083E080800807030000808080808000030
:1002300060600020100804023E5149453E00427FA4
:10024000400072494949462141494D331814127FF3
:100250001027454545393C4A494931412111090793
:100260003649494936464949291E00001400000014
:1002700040340000000814224114141414140041E6
:1002800022140802015909063E415D594E7C1211A3
:10029000127C7F494949363E414141227F414141DB
:1002A0003E7F494949417F090909013E4141517356
:1002B0007F0808087F00417F41002040413F017FC7
:1002C000081422417F404040407F021C027F7F048F
:1002D00008107F3E4141413E7F090909063E4151D8
:1002E000215E7F09192946264949493203017F01C8
:1002F000033F4040403F1F2040201F3F4038403FC9
:10030000631408146303047804036159494D4300DE
:100310007F4141410204081020004141417F040215
:1003200001020440404040400003070800205454AC
:1003300078407F284444383844444428384444288A
:100340007F385454541800087E090218A4A49C78DD
:100350007F0804047800447D40002040403D007F39
:100360001028440000417F40007C047804787C0819
:100370000404783844444438FC18242418182424ED
:1003800018FC7C08040408485454542404043F44D2
:10039000243C4040207C1C2040201C3C4030403C01
:1003A00044281028444C9090907C4464544C440061
:1003B00008364100000077000000413608000201C5
:1003C0000204023C2623263C1EA1A161123A4040B1
:1003D000207A38545455592155557941225454782E
:1003E00042215554784020545579400C1E527212C7
:1003F0003955555559395454545939555454580050
:1004000000457C410002457D420001457C407D1253
:1004100011127DF0282528F07C54554500205454B5
:100420007C547C0A097F4932494949323A44444460
:100430003A324A4848303A4141217A3A424020789B
:10044000009DA0A07D3D4242423D3D4040403D3C9C
:1004500024FF2424487E4943662B2FFC2F2BFF09C1
:1004600029F620C0887E09032054547941000044B5
:100470007D413048484A32384040227A007A0A0AA0
:10048000727D0D19317D2629292F28262929292613
:1004900030484D4020380808080808080808382F58
:1004A00010C8ACBA2F102834FA00007B00000814E2
:1004B0002A142222142A14085500550055AA55AAB8
:1004C00055AAFF55FF55FF000000FF00101010FF58
:1004D00000141414FF001010FF00FF1010F010F0B3
:1004E000141414FC001414F700FF0000FF00FF14A4
:1004F00014F404FC141417101F10101F101F1414F0
:10050000141F00101010F0000000001F1010101039
:100510001F10101010F010000000FF10101010102D
:1005200010101010FF10000000FF140000FF00FF6B
:1005300000001F10170000FC04F414141710171407
:1005400014F404F40000FF00F71414141414141429
:10055000F700F7141414171410101F101F1414149C
:10056000F4141010F010F000001F101F0000001F06
:1005700014000000FC140000F010F01010FF10FF39
:10058000141414FF141010101F00000000F010FFCE
:10059000FFFFFFFFF0F0F0F0F0FFFFFF00000000B2
:1005A00000FFFF0F0F0F0F0F3844443844FC4A4A36
:1005B0004A347E02020606027E027E0263554941EB
:1005C000633844443C04407E201E2006027E020222
:1005D00099A5E7A5991C2A492A1C4C7201724C3036
:1005E0004A4D4D303048784830BC625A463D3E490D
:1005F0004949007E0101017E2A2A2A2A2A44445FB1
:10060000444440514A444040444A51400000FF01A4
:1006100003E080FF000008086B6B083612362436B2
:10062000060F090F06000018180000001010003017
:1006300040FF0101001F01011E00191D1712003C9F
:100640003C3C3C00000000000000000024002700AB
:100650002A00000000080002010000030407000057
:100660000000000000000102040810204080010288
:1006700004081020010204081020000000002500DA
:1006800028002B00040404040404040402020202EF
:100690000202030303030303FF1211241FBECFEF63
:1006A000D8E0DEBFCDBF11E0A0E0B1E0E0EAF8E2C3
:1006B00002C005900D92A034B107D9F721E0A0E463
:1006C000B1E001C01D92AF3FB207E1F713E0CDE406
:1006D000D3E004C02197FE010E944314CC34D1071B
:1006E000C9F70E949E130C944E140C94000090E0E5
:1006F000FC01EE5AF94F2491FC01EA59F94F34916B
:10070000FC01EC57F94FE491EE23C9F0222339F0B4
:10071000233001F1A8F4213019F1223029F1F0E061
:10072000EE0FFF1FE658F94FA591B4918FB7F894DB
:10073000EC91611126C030953E233C938FBF089504
:100740002730A9F02830C9F0243049F78091800083
:100750008F7D03C0809180008F7780938000DFCFF2
:1007600084B58F7784BDDBCF84B58F7DFBCF80913F
:10077000B0008F778093B000D2CF8091B0008F7D92
:10078000F9CF3E2BDACFCF93DF9390E0FC01EA590B
:10079000F94F24918C57994FFC0184918823D1F013
:1007A00090E0880F991FFC01E85BF94FA591B49187
:1007B000FC01E658F94FC591D49161110EC09FB765
:1007C000F8948C91E22FE0958E238C932881E2237C
:1007D000E8839FBFDF91CF9108958FB7F894EC9194
:1007E000E22BEC938FBFF6CF3FB7F8948091B7011F
:1007F0009091B801A091B901B091BA0126B5A89B1A
:1008000005C02F3F19F00196A11DB11D3FBFBA2FA2
:10081000A92F982F8827BC01CD01620F711D811D62
:10082000911D42E0660F771F881F991F4A95D1F7E7
:1008300008958F929F92AF92BF92CF92DF92EF92E4
:10084000FF924B015C010E94F4036B017C010E944A
:10085000F4036C197D098E099F09683E7340810578
:100860009105A8F321E0821A9108A108B10888EE49
:10087000C80E83E0D81EE11CF11C81149104A10470
:10088000B10429F7FF90EF90DF90CF90BF90AF9029
:100890009F908F900895AF92BF92CF92DF92EF9288
:1008A000FF920F931F93CF93DF936C017B018B011A
:1008B000040F151FEB015E01AE18BF08C017D1076A
:1008C00059F06991D601ED91FC910190F081E02DF4
:1008D000C6010995892B79F7C501DF91CF911F9149
:1008E0000F91FF90EF90DF90CF90BF90AF90089561
:1008F00020916801260F3327331F21323105ECF494
:1009000020918C01FC0190E080E0243069F082E0CD
:100910000895A09168012191AC01485B5E4FA40F3E
:10092000B52FB11D2C930196861798F3809168011D
:10093000680F6093680180E0089581E0089508954C
:100940008FEF9FEF08958FEF9FEF08958091410102
:1009500090E09195819591090895CF93DF93CB0114
:10096000EA01642F0E947804CE01DF91CF910895AF
:10097000CF93DF931F92CDB7DEB7698361E0CE01DD
:1009800001960E94780481E090E00F90DF91CF9172
:100990000895FC01A5A1B6A18C9192A589238C9301
:1009A000A5A1B6A18C9191A5892B8C9308950F9345
:1009B0001F93CF93DF93EC018B018DA981110DC0A3
:1009C0001EBD0DB407FEFDCF0EBD0DB407FEFDCF5D
:1009D000DF91CF911F910F9108958130E9F480E16B
:1009E000E9A1FAA1908117FF14C02DA1922B908349
:1009F000EBA1FCA190812FA1922B9083EBA1FCA1F4
:100A0000908128A592239083000F111F815041F7F8
:100A1000DFCF2EA19223EBCFEF8DF8A11083CE0173
:100A20000E94C904EF8DF8A10083CE01DF91CF9120
:100A30001F910F910C94C904FC0185A9811105C077
:100A40006EBD0DB407FEFDCF08958130E1F488E05E
:100A5000A1A1B2A19C9167FF13C025A1922B9C93E9
:100A6000A3A1B4A19C9127A1922B9C93660FA3A153
:100A7000B4A19C9120A592239C93815049F708959D
:100A800026A19223ECCFA78DB0A16C93CF010C943B
:100A9000C904CF93DF93EC01ED8DFE8D80819CA97D
:100AA00089238083CE010E941C05ED8DFE8D8081FF
:100AB0009BA9892B8083DF91CF910895FC0185A9A3
:100AC000811104C091A182A19CBD8DBD08951F9389
:100AD000CF93DF93EC01162FE881F9810284F3852F
:100AE000E02D0995112371F06DADCE010E944905ED
:100AF000E881F9810688F789E02DCE01DF91CF9159
:100B00001F9109946EADF1CFAF92BF92CF92DF9259
:100B1000EF92FF920F931F93CF93DF93EC0177FD3A
:100B200038C088859985681779079CF557FD31C0CD
:100B30008A859B854817590764F569017A015B012D
:100B4000E881F9810284F385E02DCE010995E881E1
:100B5000F98102A4F3A5E02D01E010E021E030E0EE
:100B6000A701B501CE010995B601CE010E94D704B7
:100B7000E881F9810688F789E02DCE01DF91CF91D8
:100B80001F910F91FF90EF90DF90CF90BF90AF90AB
:100B90000994DF91CF911F910F91FF90EF90DF901B
:100BA000CF90BF90AF9008958F929F92AF92BF92D7
:100BB000CF92DF92EF92FF920F931F93CF93DF9329
:100BC000EC0149015701E881F98102A4F3A5E02D68
:100BD00009959401D8010E9425146B017C01C11470
:100BE000D104E104F10409F490C08DA9811115C06C
:100BF00081E0C81AD108E108F1088FEFC816D806BD
:100C0000E806F80609F481C0BEBC0DB407FEFDCFAE
:100C1000AEBC0DB407FEFDCFEBCF813009F045C06F
:100C200081E0C81AD108E108F1088FEFC816D8068C
:100C3000E806F80609F469C09B2D88E0E9A1FAA14D
:100C4000208197FF2CC03DA1232B2083EBA1FCA189
:100C500020813FA1232B2083EBA1FCA1208138A57B
:100C600023232083990F815049F79A2D88E0E9A129
:100C7000FAA1208197FF16C03DA1232B2083EBA171
:100C8000FCA120813FA1232B2083EBA1FCA120818B
:100C900038A523232083990F815049F7C1CF3EA166
:100CA0002323D3CF3EA12323E9CFBA1016C0CC0C07
:100CB000DD1CEE1CFF1CEF8DF8A1B08281E0C81A8C
:100CC000D108E108F1088FEFC816D806E806F80643
:100CD000E1F0CE010E94C904F1CF81E0C81AD10829
:100CE000E108F1088FEFC816D806E806F80669F0A3
:100CF000EF8DF8A1B082CE010E94C904EF8DF8A15A
:100D0000A082CE010E94C904E8CFDF91CF911F914C
:100D10000F91FF90EF90DF90CF90BF90AF909F909A
:100D20008F9008958F929F92AF92BF92CF92DF9251
:100D3000EF92FF920F931F93CF93DF935C014B01D0
:100D40006A01E90177FD52C0DC0118968D919C91F2
:100D5000681779070CF04AC0209709F447C037FF9D
:100D600007C0C9010196C80ED91ED195C195D109F8
:100D7000F50182859385C816D906C4F5A6014C0FE6
:100D80005D1F9A012150310937FD30C0D7FE03C0E5
:100D9000EA01D12CC12C281739071CF0EC01CC1921
:100DA000DD09D501ED91FC910284F385E02DC501AB
:100DB000099578018E0121E030E0A601B401C5015A
:100DC0000E94D405D501ED91FC910688F789E02DAC
:100DD000C501DF91CF911F910F91FF90EF90DF90B0
:100DE000CF90BF90AF909F908F900994DF91CF915B
:100DF0001F910F91FF90EF90DF90CF90BF90AF9039
:100E00009F908F9008958F929F92AF92BF92CF92B2
:100E1000DF92EF92FF920F931F93CF93DF935C01CA
:100E20006B014A01E90157FD52C0DC011A968D9110
:100E30009C91481759070CF04AC0209709F447C005
:100E400037FF07C0C9010196C80ED91ED195C195BB
:100E5000D109F50180859185C816D906C4F5A6018A
:100E60004C0F5D1F9A012150310937FD30C0D7FE6C
:100E700003C0EA01D12CC12C281739071CF0EC0162
:100E8000CC19DD09D501ED91FC910284F385E02DAB
:100E9000C5010995780101E010E09E01A401B601A9
:100EA000C5010E94D405D501ED91FC910688F78912
:100EB000E02DC501DF91CF911F910F91FF90EF9031
:100EC000DF90CF90BF90AF909F908F900994DF916B
:100ED000CF911F910F91FF90EF90DF90CF90BF9037
:100EE000AF909F908F9008958F929F92AF92BF92F4
:100EF000CF92DF92EF92FF920F931F93CF93DF93E6
:100F00004C016B015A01E901209709F46CC00115ED
:100F1000110509F468C037FF07C0C9010196C80E62
:100F2000D91ED195C195D109F401A085B185CA1604
:100F3000DB060CF058C017FF07C0C8010196A80EC9
:100F4000B91E119501951109F40182859385A816A2
:100F5000B9060CF048C0F601EC0FFD1FAF0141507F
:100F6000510957FD40C0B501600F711F9B01215011
:100F7000310937FD38C0D7FE03C0EF01D12CC12C99
:100F8000B7FE03C08B01B12CA12C4A175B071CF0E4
:100F9000ED01CC19DD09281739071CF08C010A195D
:100FA0001B09D401ED91FC910284F385E02DC4016D
:100FB00009959E01A501B601C4010E94D405D40182
:100FC000ED91FC910688F789E02DC401DF91CF9166
:100FD0001F910F91FF90EF90DF90CF90BF90AF9057
:100FE0009F908F900994DF91CF911F910F91FF9067
:100FF000EF90DF90CF90BF90AF909F908F9008952B
:10100000EF92FF920F931F93CF93DF9377FD32C040
:10101000DC011896ED91FC916E177F075CF52115A8
:10102000310541F137FF07C0F90131964E0F5F1FBF
:10103000319521953109DC011A96ED91FC914E17FD
:101040005F07C4F4EA01C20FD31FDE011197B7FD99
:1010500011C057FF03C09E0150E040E0AE17BF072C
:101060001CF09F01241B350B7801890121E030E041
:101070000E94D405DF91CF911F910F91FF90EF90C7
:101080000895EF92FF920F931F93CF93DF9357FD35
:1010900031C0DC011A96ED91FC914E175F0754F5B3
:1010A0002115310539F137FF07C0F90131966E0F6F
:1010B0007F1F319521953109DC011896ED91FC9146
:1010C0006E177F07BCF4EB01C20FD31FDE0111972F
:1010D000B7FD10C077FF03C09E0170E060E0AE175F
:1010E000BF071CF09F01261B370B780101E010E0C1
:1010F0000E94D405DF91CF911F910F91FF90EF9047
:1011000008958F929F92AF92BF92CF92DF92EF920B
:10111000FF920F931F93CF93DF9347012115310562
:1011200009F44BC00115110509F447C037FF07C08A
:10113000F90131966E0F7F1F319521953109DC0140
:101140001896AD90BC906A157B05BCF517FF07C0DB
:10115000F80131964E0F5F1F119501951109DC01C1
:101160001A96ED91FC914E175F073CF56B01C20E8C
:10117000D31EE6012197D7FD20C07A01E00EF11EB3
:10118000D7011197B7FD19C077FF03C0960170E032
:1011900060E057FF03C0870150E040E0CA15DB055F
:1011A0001CF09501261B370BAE17BF071CF08F01F3
:1011B000041B150B74010E94D405DF91CF911F9180
:1011C0000F91FF90EF90DF90CF90BF90AF909F90E6
:1011D0008F900895EF92FF920F931F93CF93DF9319
:1011E000EC0177FD22C08885998568177907ECF4B2
:1011F00057FD1BC08A859B8548175907B4F47901B0
:10120000E881F98102A4F3A5E02D01E010E021E0DE
:1012100030E0CE010995B701CE01DF91CF911F914A
:101220000F91FF90EF900C94D704DF91CF911F9115
:101230000F91FF90EF900895CF93DF93EC010E9400
:101240005E058FA987FD06C0EB8DFC8D80819AA974
:1012500089238083DF91CF9108950895AF92BF9243
:10126000CF92DF92EF92FF920F931F93CF93DF9372
:10127000EC01E62E8A01A22E0E945E058FA987FD51
:1012800006C0EB8DFC8D80819AA989238083ED8D2A
:10129000FE8D80819CA9892380836E2DCE010E94C2
:1012A0001C05ED8DFE8D80819BA9892B8083D12C1F
:1012B000C12CB12CCA14DB04E4F48DA9780182306E
:1012C00079F488A9882361F0F801619171917F0117
:1012D000CE010E94D704FFEFCF1ADF0A8701EACFC1
:1012E000FFEFEF1AFF0AF8016491CE010E941C057E
:1012F000F2CF8FA987FD06C0EB8DFC8D808199A967
:10130000892B8083DF91CF911F910F91FF90EF90F8
:10131000DF90CF90BF90AF900895FC0187A987FD23
:1013200006C0A38DB48D9C9181A9892B8C930895BF
:101330000895FC016370668B8481958126813781D5
:10134000613039F0633029F09187808733872287B5
:101350000895318720879387828708952F923F923F
:101360004F925F926F927F928F929F92AF92BF92B5
:10137000CF92DF92EF92FF920F931F93CF93DF9361
:10138000CDB7DEB76A970FB6F894DEBF0FBECDBFFC
:101390009A8F898F7A8369834A01D22E18870F83A7
:1013A0003701BC2CDC0159962D913C915A9721159F
:1013B000310509F015C118968D919C911997681700
:1013C00079070CF0D7C11A968D919C91481759074F
:1013D0000CF0D0C14C2C512CB6E0CB9E600D711D91
:1013E00011247C876B87161617060CF0C3C1EA2DF3
:1013F000F0E0FA87E98793E0EE0FFF1F9A95E1F797
:10140000F88BEF87CF01840F951F181619060CF083
:10141000B1C1A98DBA8D58968C91811104C0BFEAD3
:10142000BD1508F4D394A98DBA8DED91FC91119757
:101430000284F385E02DCD010995B5E0DB9EC00166
:101440001124E981FA81FC83EB83312C212C9C014E
:10145000285B3E4F388F2F8B4A2D50E05E8B4D8B93
:10146000EF89F88DE20DF31D44919E828D82D12C7F
:10147000C12C69817A81620D731D7A8B698B842FEF
:1014800090E09C8B8B8BE98DFA8DA081B18140FF20
:1014900082C0F1E0BF126FC0AF126DC01C96ED911B
:1014A000FC912F813885A4014C0D5D1D69897A89D5
:1014B000898D9A8D0995EB89FC89F595E7954E2FD5
:1014C0005FEFC51AD50A6D817E818D899E89680F6F
:1014D000791F7E836D8398E0C916D10481F6AFEF42
:1014E0002A1A3A0AEB81FC81E40DF51DFC83EB839B
:1014F000F5E02F16310409F0B3CF2F81388526157A
:101500003705B9F0A98DBA8DED91FC91B1E0BB1210
:1015100057C0AB1255C069817A816B5F7F4F0088DD
:10152000F189E02D830128E030E0A401898D9A8DB6
:101530000995A98DBA8DED91FC9111970688F789CF
:10154000E02DCD016A960FB6F894DEBF0FBECDBF79
:10155000DF91CF911F910F91FF90EF90DF90CF908F
:10156000BF90AF909F908F907F906F905F904F90C3
:101570003F902F9009941E96ED91FC91EF80F88496
:1015800009851A8592014D815E816B817C81898DEF
:101590009A8D099590CF2F8138852615370509F446
:1015A0008ACF31E0B31207C0A31205C01C96ED919B
:1015B000FC91930178CF1E96ED91FC917301E0CFE1
:1015C0006B857C85641975090684F785E02D7301A8
:1015D0000F8518899201A401898D9A8D0995A9CF4B
:1015E000F90134969491329745915491D91AB7E004
:1015F000DB9E400D511D1124F901259134913C8B46
:101600002B8BFA0125903490FA0132967490319622
:101610003491398B329664903196449041E04C1568
:1016200018F04A1508F07FC0662D062C000C770BC9
:101630007C836B83842D042C000C990B9E838D83FB
:10164000A98DBA8DED91FC9111970284F385E02D5F
:10165000CD010995512CD12CC12CEA2DF0E0FA874F
:10166000E9872B2D30E03C872B87A401440D511DC9
:1016700047FC5A95588F4F8B69817A81660D711D91
:1016800067FC7A957E876D877989C71608F051CFF8
:101690002C2D30E04D815E81420F531FA985BA8504
:1016A0004A9FC0014B9F900D5A9F900D1124FC0141
:1016B000E80DF91DF88BEF87852D612C4F89588D2A
:1016C000420F531F5E8B4D8B671408F050C04424AB
:1016D0004394480E877041F4C1010196EB89FC895F
:1016E000E20DF31DD4901C01D7FE19C0A98DBA8D4F
:1016F000ED91FC91662D70E0B1E0BB1219C0AB1208
:1017000017C02D853E85620F731F0484F585E02D7B
:101710002F8138854D895E89898D9A8D0995DD0CDB
:101720006394842DD1CF1E821D821C821B8288CFA0
:101730004B815C81640F751FAB85BC856A9FC001BE
:101740006B9F900D7A9F900D112469817A81680FAB
:10175000791F0684F785E02DEF80F88409851A85C6
:101760009D014F855889898D9A8D0995D8CF570C41
:10177000C3948ACF6A960FB6F894DEBF0FBECDBF72
:10178000DF91CF911F910F91FF90EF90DF90CF905D
:10179000BF90AF909F908F907F906F905F904F9091
:1017A0003F902F9008958F929F92AF92CF92EF9299
:1017B000FF920F931F93CF93DF93EC01262F898D18
:1017C0009A8D009709F051C06A30D1F41D861C86AD
:1017D0008D8948E0849F900111248E859F85820F1A
:1017E000931F9F878E8781E090E0DF91CF911F91BB
:1017F0000F91FF90EF90CF90AF909F908F900895B2
:101800006D3089F3CC88AD888F898823C1F08C85B1
:101810009D8536E0C39E800D911D11244885598514
:101820004817590764F44E855F851D861C8638E08D
:10183000A39EC0011124840F951F9F878E87EA887D
:10184000FB88088919894E855F856C857D85CE0169
:101850000E94AE092C898C859D8546E0249F800DD1
:10186000911D11249D878C87BECF6A3069F41D8637
:101870001C86FC013896E4912D898E859F85E29F18
:10188000800D911D1124ADCF6D3009F4ACCFFC015A
:1018900034963491631708F4A6CF3296E491E61794
:1018A00008F4A1CFFC01329685909490462F431BFB
:1018B000342F47E0349F800C911C1124F4013296A0
:1018C00034913196E4913323A9F1EE2399F1CC8838
:1018D000F4013596E491AD884F89442301F10E2E31
:1018E000000CFF0BE30FF11DCE9EA001CF9E500D0B
:1018F00011246C857D85460F571F6885798564178F
:1019000075076CF44E855F851D861C86FC01389634
:10191000E491AE9E400D511D11245F874E87EA88E9
:10192000FB88088919894E855F856C857D85CE0188
:101930000E94AE09F4013496E4912C898C859D8532
:10194000E29F800D911D11248DCF6F927F928F9217
:101950009F92AF92BF92CF92DF92EF92FF920F933E
:101960001F93CF93DF93EC016B015A0139014801BA
:10197000E881F9810284F385E02D0995E881F981F8
:101980000288F389E02D87019301A501B601CE01FC
:101990000995A501480D591D41505109E881F9816A
:1019A0000288F389E02D9301B601CE010995E88103
:1019B000F9810088F189E02D9401A501B601CE01DD
:1019C0000995C60CD71CB60161507109E881F981EF
:1019D0000088F189E02D9401A501CE010995E881E7
:1019E000F9810688F789E02DCE01DF91CF911F9113
:1019F0000F91FF90EF90DF90CF90BF90AF909F90AE
:101A00008F907F906F9009946F927F928F929F92A8
:101A1000AF92BF92CF92DF92EF92FF920F931F93FC
:101A2000CF93DF935C01EB016A0149013801870123
:101A3000DC01ED91FC916217730719F564167506C8
:101A40002CF0962D872D3A01C92ED82E96012619F5
:101A500037092F5F3F4F048CF58DE02DA301BE01A8
:101A6000C5010995DF91CF911F910F91FF90EF90E4
:101A7000DF90CF90BF90AF909F908F907F906F90AE
:101A800008954615570591F42617370724F0892D38
:101A90004B01C22FD82F9E01281939092F5F3F4FC4
:101AA000068CF78DE02DA601B401DACF0284F38510
:101AB000E02D0995D501ED91FC910488F589E02D83
:101AC00083019401A601BE01C5010995D501ED91DF
:101AD000FC910688F789E02DC501DF91CF911F9118
:101AE0000F91FF90EF90DF90CF90BF90AF909F90BD
:101AF0008F907F906F900994EF92FF920F931F93B6
:101B0000DC011A960D911C911B9718962D913C9112
:101B10001997ED91FC9100A0F1A1E02D7B0150E01F
:101B200040E070E060E009951F910F91FF90EF9009
:101B300008954F925F926F927F928F929F92AF9291
:101B4000BF92CF92DF92EF92FF920F931F93CF93AA
:101B5000DF936C012B015A0139014801DC01ED9141
:101B6000FC910284F385E02D0995E201640C751C5B
:101B7000D601ED91FC91C615D7055CF40088F1897A
:101B8000E02D87019401A501BE01C60109952196AA
:101B9000EFCF0688F789E02DC601DF91CF911F9125
:101BA0000F91FF90EF90DF90CF90BF90AF909F90FC
:101BB0008F907F906F905F904F9009948F929F923B
:101BC000AF92BF92CF92DF92EF92FF920F931F934B
:101BD000CF93DF93EC015B014A016901E881F98150
:101BE0000284F385E02D099595012C0D3D1D2150B2
:101BF0003109E881F9810488F589E02D78018401B3
:101C0000A401B501CE010995E881F9810688F7891B
:101C1000E02DCE01DF91CF911F910F91FF90EF90BA
:101C2000DF90CF90BF90AF909F908F9009948F924C
:101C30009F92AF92BF92CF92DF92EF92FF920F935B
:101C40001F93CF93DF93EC015B014A016901780197
:101C5000E881F9810284F385E02D0995C80CD91C2F
:101C6000860101501109E881F9810488F589E02D88
:101C70009501A401B501CE010995E881F981068895
:101C8000F789E02DCE01DF91CF911F910F91FF9049
:101C9000EF90DF90CF90BF90AF909F908F9009947E
:101CA000EF92FF920F931F93DC01ED91FC9100A046
:101CB000F1A1E02D09951F910F91FF90EF900895EC
:101CC0000F931F93DC01ED91FC91068CF78DE02DB5
:101CD00009951F910F9108950F931F93DC01ED91CA
:101CE000FC91048CF58DE02D09951F910F910895BD
:101CF000DC01ED91FC910084F185E02D09942F9297
:101D00003F924F925F926F927F928F929F92AF928B
:101D1000BF92CF92DF92EF92FF920F931F93CF93D8
:101D2000DF9300D000D000D0CDB7DEB73C016A0110
:101D30003E832D83FC82EB825801A41AB50AB7FEBC
:101D400003C0B194A194B1088D809E80861A970A31
:101D500097FE03C09194819491088A149B045CF0CF
:101D6000902F812F0D811E819D838E839C2D8D2D23
:101D70006B01692F782F0C151D055CF09D818E81FC
:101D80007E836D83692F782F902F812F8601C92E36
:101D9000D82E1601201A310A2B012D813E81421ABC
:101DA000530A57FE03C0519441945108710137FE04
:101DB00003C03FEFE31AF30AF594E7948D819E8107
:101DC000861797075CF5A1E0B0E0BA83A983C01637
:101DD000D1064CF1D301ED91FC910484F585E02D01
:101DE0002B813C81A8016D817E818A149B041CF0AB
:101DF0004D815E81B801C3010995E418F508F7FE2D
:101E00000AC02D813E8189819A81280F391F3E8326
:101E10002D83E20CF31C0F5F1F4FD9CF2FEF3FEF45
:101E20003A832983D4CF26960FB6F894DEBF0FBE2F
:101E3000CDBFDF91CF911F910F91FF90EF90DF9079
:101E4000CF90BF90AF909F908F907F906F905F905A
:101E50004F903F902F900895AF92BF92CF92DF9214
:101E6000EF92FF920F931F93CF93DF93EC015B01EF
:101E70006A01215031097901E60EF71E015011095E
:101E8000040F151F6AE20E944905B501CE010E94A8
:101E9000D704B701CE010E94D7046BE2CE010E94A5
:101EA0004905B601CE010E94D704B801CE010E94B7
:101EB000D7046CE2CE01DF91CF911F910F91FF907B
:101EC000EF90DF90CF90BF90AF900C9449056111D7
:101ED00006C060E220E050E040E00C942E0961E290
:101EE000F9CF0F931F93CF93DF931F92CDB7DEB738
:101EF0008C016370DC0156966C935697623009F43E
:101F000064C0633009F466C0613009F454C088E4E9
:101F1000898380EF90E019969C938E9318971B9677
:101F20009C938E931A97C8010E945E05D801D7969C
:101F30008C91D79787FD09C05B96ED91FC915C97DA
:101F40008081D2969C9189238083D8015D96ED9102
:101F5000FC915E978081D4969C918923808366E36F
:101F6000C8010E941C05D8015D96ED91FC915E9719
:101F70008081D3969C91D397892B8083D5968C9121
:101F8000823051F16981C8010E941C05D801D796A1
:101F90008C91D79787FD09C05B96ED91FC915C977A
:101FA0008081D1969C91892B80830F90DF91CF9176
:101FB0001F910F91089588E2898380EF90E0F801E6
:101FC0009187808793878287AECF88E8898380EF67
:101FD00090E0A1CF88EEF0CFF80180A9882391F29C
:101FE00069817A81C8010E94D704D0CF089590E01A
:101FF00080E008950E9449141F93CF93DF9385EDED
:102000008093BC008091440190914501A0914601CC
:10201000B09147010796A11DB11D23E0B695A79584
:10202000979587952A95D1F72091BC0024FD03C090
:1020300010928C0152C04091440150914501609131
:10204000460170914701452B462B472B69F30097BA
:10205000A105B10541F02AE22A95F1F700C00197E8
:10206000A109B109E1CF80914301C1E0C0934201D0
:10207000882399F1D091B8001091BA008091BC00EA
:102080008A7B8093BC0060E082E10E94770360E07D
:1020900083E10E94770310928C01C0938E0110920D
:1020A0008D0161E082E10E94770361E083E10E949B
:1020B00077038091B9008E7F8093B9008091B90039
:1020C0008D7F8093B90088E48093B80085E4809385
:1020D000BC001093BA00D093B800DF91CF911F914C
:1020E0000895CF92DF92EF92FF920F931F93CF93B9
:1020F000DF93EC016A017B01C114D104E104F10416
:1021000031F4C12C42E1D42E4AE7E42EF12C8FA900
:1021100087FD07C061E00E94C30361E08FA90E94B0
:10212000770361E088AD0E94C30361E088AD0E943F
:1021300077038DA98111A3C040E052E16AE770E006
:10214000C416D506E606F70640F4769567955795CA
:1021500047958F5F8630A1F787E0982F906A969514
:1021600099A3809581708AA31BA21CA21DA21EA206
:102170001FB7F89480914001811127C0EEE8F6E086
:102180008491E0E7F6E09491E82FF0E0EE0FFF1F76
:10219000E85BF94FA591B491EC91E92321F461E05A
:1021A0008AE00E94770361E08AE00E94C3038CB555
:1021B00080618CBD8CB580648CBD61E08DE00E9437
:1021C000C30361E08BE00E94C303809140018F5FF5
:1021D000809340011FBF8EA987FD21C061E00E944E
:1021E000C30361E08EA90E94770364E670E080E09B
:1021F00090E00E94190460E08EA90E94770364E6D3
:1022000070E080E090E00E94190461E08EA90E94D5
:10221000770368EC70E080E090E00E9419048EA9DA
:1022200087FF0DC020E050E040E061E0CE010E9459
:102230002E0966E970E080E090E00E94190408E64B
:1022400010E0C8010196F8016491662309F463C0A7
:102250000E5F1F4FFC01F490EF2CE894E7F82E2D51
:10226000A801CE010E942E090E0D111DF7FEE9CF27
:1022700066E970E080E090E00E941904E2CF04E893
:1022800016E0F12C8130B9F461E08AA50E94C30305
:1022900060E08AA50E94770361E08CA50E94C303D9
:1022A00060E08CA50E9477038BA587FD94CF60E04A
:1022B0000E94C30390CFF8018491E82FF0E0EE0F65
:1022C000FF1FE658F94F859194912F8D38A128175B
:1022D000390741F461E08F2D0E94C30360E08F2D28
:1022E0000E947703F3940F5F1F4FF4E1FF12E3CFD7
:1022F00061E08EA50E94C30361E08EA50E94770372
:102300008FA587FD68CF61E00E94C30361E08FA5C0
:102310000E94770360CF80EF90E0998788879B8742
:102320008A87DF91CF911F910F91FF90EF90DF90FF
:10233000CF9008951F920F920FB60F9211242F93F2
:102340003F938F939F93AF93BF938091B3019091ED
:10235000B401A091B501B091B6013091B20123E072
:10236000230F2D3758F50196A11DB11D2093B20101
:102370008093B3019093B401A093B501B093B601DB
:102380008091B7019091B801A091B901B091BA01C3
:102390000196A11DB11D8093B7019093B801A09340
:1023A000B901B093BA01BF91AF919F918F913F91C5
:1023B0002F910F900FBE0F901F90189526E8230FB6
:1023C0000296A11DB11DD2CF1F920F920FB60F9290
:1023D00011242F933F934F935F936F937F938F932A
:1023E0009F93AF93BF93EF93FF938091B900887F42
:1023F000803609F44AC0F0F5883209F4A5C018F512
:10240000803109F499C0B8F4882309F4F5C0883004
:1024100009F492C0FF91EF91BF91AF919F918F917D
:102420007F916F915F914F913F912F910F900FBED0
:102430000F901F901895883109F486C0803251F7AB
:1024400080938B0114C0803409F49BC040F4803326
:10245000B9F38833F9F680938B0185ECAEC08035F3
:1024600009F483C0883509F494C0883499F60E9431
:10247000FC0FD0CF883909F48AC038F5883729F0A5
:1024800050F4883611F0803729F683E080938C0170
:1024900010928A0155C0883809F479C0803919F042
:1024A000803809F0B7CF80918A01803208F06FC080
:1024B000E0918A0181E08E0F80938A018091BB00B8
:1024C000F0E0E659FE4F80833BC0803B39F0D0F40A
:1024D000803A09F477C0883A09F09CCF84E0809371
:1024E0008C011092690110926801F0E0E0E009951A
:1024F0008091680181110FC081E080936801109282
:10250000480109C0803C09F4A8CF883C09F4A5CF54
:10251000883B09F07FCFE091690181E08E0F8093C5
:102520006901F0E0E85BFE4F80818093BB009091F1
:1025300069018091680129C08091B1018093BB003D
:1025400085EC8093BC0066CF9091B0018091AF0183
:10255000981758F5E091B00181E08E0F8093B0019B
:10256000F0E0E157FE4F8081E9CFE091B00181E0DA
:102570008E0F8093B0018091BB00F0E0E157FE4FD9
:1025800080839091B0018091AF019817C8F285E8DF
:10259000D8CFE091B00181E08E0F8093B00180919F
:1025A000BB00F0E0E157FE4F808380918E018111E6
:1025B0005ECF81E080938D0184EA8093BC0010920D
:1025C0008C0128CF85EC8093BC0010928C01809107
:1025D0008A01803230F4E0918A01F0E0E659FE4F42
:1025E000108260918A0170E08AE691E0F0E0E0E01C
:1025F000099510928A010ECF10928B0138CFACEB67
:10260000B1E013961C921E92129780EF90E01596FF
:102610009C938E93149717969C938E931697199666
:102620009C938E9318971B969C938E931A9756960D
:102630001C9256971D961C921E921C971F961C92D8
:102640001E921E9781E055968C93559754968C93C5
:1026500054972FEF3FEF53963C932E9352975196FA
:102660003C932E93509757968C93579758961C925D
:1026700058975A961C921E925997D5961C92D597A8
:102680008FEFD6968C93D6978AE0D7968C93D79770
:1026900089E0D8968C93D897DA961C921E92D99797
:1026A000DC961C921E92DB97DD961C92DD97DE96DF
:1026B0001C92DE971092FB011092FC011092FD011A
:1026C0001092FE018BEB91E090969C938E935F9716
:1026D000EDE8F6E0E491F0E0EE0FFF1FE658F94F69
:1026E000859194915E969C938E935D97EFE6F6E0CC
:1026F0008491D3968C93D397EEE8F6E0E491F0E0E2
:10270000EE0FFF1FE658F94F259134915C963C93EC
:102710002E935B97E0E7F6E0E491D196EC93D197A6
:10272000E095D296EC93D297E82FE095D496EC936F
:10273000D49784E091E08D939C930895789484B528
:10274000826084BD84B5816084BD85B5826085BDAD
:1027500085B5816085BD80916E00816080936E003B
:10276000109281008091810082608093810080912D
:1027700081008160809381008091800081608093DE
:1027800080008091B10084608093B1008091B0009E
:1027900081608093B00080917A00846080937A0099
:1027A00080917A00826080937A0080917A008160C3
:1027B00080937A0080917A00806880937A001092EA
:1027C000C10040E050E0BA018CEB91E00E94711032
:1027D00063E08CEB91E00E94710F60EE77E08CEB90
:1027E00091E00E947C0D80E098EF9093CF01809360
:1027F000CE019093CD018093CC0182E08093D001F3
:102800008093D10182E390E09093C9018093C80145
:102810008EE690E09093CB018093CA014CE050E0AB
:1028200060E371E08CEB91E00E944B0442E050E0E9
:102830006DE371E08CEB91E00E944B04C0E0D0E0CE
:102840002097F1F30E940000FBCF0E942D14332348
:1028500012F48A1B9B0B0C943E14A29FB001B39FF1
:10286000C001A39F700D811D1124911DB29F700D99
:10287000811D1124911D08950E942D14B7FF089504
:10288000821B930B0895EE0FFF1F0590F491E02D2E
:10289000099481E090E0F8940C944E14F894FFCFE2
:1028A00000000000D30B4B04F70FF60F84051C0942
:1028B000EA088108000841087F0E8D09710F670F33
:1028C0009206030774077C0D040DA50C71102C0FE4
:1028D000486F6C612C206D756E646F21000D0A00CD
:107E000085E08093810082E08093C00088E18093C8
:107E1000C10086E08093C20080E18093C40084B7F3
:107E200014BE81FFD0D089E2C8D0259A86E020E335
:107E30003CEF91E0309385002093840096BBB09B8B
:107E4000FECF1D9AA8958150A9F7DD24D394A5E013
:107E5000EA2EF1E1FF2EA4D0813421F481E0BED0DE
:107E600083E024C0823411F484E103C0853419F422
:107E700085E0B4D08AC08535A1F492D0082F10E0F7
:107E800010930102009300028BD090E0982F882776
:107E9000802B912B880F991F9093010280930002F1
:107EA00073C0863529F484E099D080E071D06DC02C
:107EB000843609F043C07CD0E0910002F0910102C9
:107EC00083E080935700E895C0E0D1E069D08993C2
:107ED000809102028150809302028823B9F778D002
:107EE00007B600FCFDCF4091000250910102A0E0D6
:107EF000B1E02C9130E011968C91119790E0982F81
:107F00008827822B932B1296FA010C01D0925700EE
:107F1000E89511244E5F5F4FF1E0A038BF0749F7A5
:107F2000E0910002F0910102E0925700E89507B657
:107F300000FCFDCFF0925700E89527C08437B9F4D4
:107F400037D046D0E0910002F09101023196F093D3
:107F50000102E09300023197E4918E2F19D08091B5
:107F60000202815080930202882361F70EC0853798
:107F700039F42ED08EE10CD085E90AD08FE096CF6F
:107F8000813511F488E019D023D080E101D063CF8E
:107F9000982F8091C00085FFFCCF9093C600089574
:107FA000A8958091C00087FFFCCF8091C6000895FE
:107FB000F7DFF6DF80930202F3CFE0E6F0E098E12E
:107FC00090838083089580E0F8DFEE27FF270994EF
:107FD000E7DF803209F0F7DF84E1DACF1F93182F53
:0C7FE000DFDF1150E9F7F4DF1F91089576
:00000001FF
